{
  "contractName": "WalletList",
  "abi": [
    {
      "inputs": [],
      "stateMutability": "nonpayable",
      "type": "constructor"
    },
    {
      "anonymous": false,
      "inputs": [
        {
          "indexed": true,
          "internalType": "address",
          "name": "wallet",
          "type": "address"
        }
      ],
      "name": "WalletAdded",
      "type": "event"
    },
    {
      "anonymous": false,
      "inputs": [
        {
          "indexed": true,
          "internalType": "address",
          "name": "wallet",
          "type": "address"
        }
      ],
      "name": "WalletRemoved",
      "type": "event"
    },
    {
      "inputs": [],
      "name": "owner",
      "outputs": [
        {
          "internalType": "address",
          "name": "",
          "type": "address"
        }
      ],
      "stateMutability": "view",
      "type": "function"
    },
    {
      "inputs": [
        {
          "internalType": "address",
          "name": "",
          "type": "address"
        }
      ],
      "name": "walletList",
      "outputs": [
        {
          "internalType": "bool",
          "name": "",
          "type": "bool"
        }
      ],
      "stateMutability": "view",
      "type": "function"
    },
    {
      "inputs": [
        {
          "internalType": "address",
          "name": "newWallet",
          "type": "address"
        }
      ],
      "name": "addWallet",
      "outputs": [],
      "stateMutability": "nonpayable",
      "type": "function"
    },
    {
      "inputs": [
        {
          "internalType": "address",
          "name": "wallet",
          "type": "address"
        }
      ],
      "name": "removeWallet",
      "outputs": [],
      "stateMutability": "nonpayable",
      "type": "function"
    },
    {
      "inputs": [
        {
          "internalType": "address",
          "name": "wallet",
          "type": "address"
        }
      ],
      "name": "isWalletListed",
      "outputs": [
        {
          "internalType": "bool",
          "name": "",
          "type": "bool"
        }
      ],
      "stateMutability": "view",
      "type": "function"
    }
  ],
  "bytecode": "0x608060405234801561000f575f80fd5b50335f806101000a81548173ffffffffffffffffffffffffffffffffffffffff021916908373ffffffffffffffffffffffffffffffffffffffff1602179055506107c28061005c5f395ff3fe608060405234801561000f575f80fd5b5060043610610055575f3560e01c806358f35486146100595780638da5cb5b14610089578063a75fe8e1146100a7578063eedf1e72146100c3578063efeb5f1f146100f3575b5f80fd5b610073600480360381019061006e9190610598565b61010f565b60405161008091906105dd565b60405180910390f35b610091610161565b60405161009e9190610605565b60405180910390f35b6100c160048036038101906100bc9190610598565b610184565b005b6100dd60048036038101906100d89190610598565b610334565b6040516100ea91906105dd565b60405180910390f35b61010d60048036038101906101089190610598565b610351565b005b5f60015f8373ffffffffffffffffffffffffffffffffffffffff1673ffffffffffffffffffffffffffffffffffffffff1681526020019081526020015f205f9054906101000a900460ff169050919050565b5f8054906101000a900473ffffffffffffffffffffffffffffffffffffffff1681565b5f8054906101000a900473ffffffffffffffffffffffffffffffffffffffff1673ffffffffffffffffffffffffffffffffffffffff163373ffffffffffffffffffffffffffffffffffffffff1614610211576040517f08c379a00000000000000000000000000000000000000000000000000000000081526004016102089061069e565b60405180910390fd5b60015f8273ffffffffffffffffffffffffffffffffffffffff1673ffffffffffffffffffffffffffffffffffffffff1681526020019081526020015f205f9054906101000a900460ff1661029a576040517f08c379a000000000000000000000000000000000000000000000000000000000815260040161029190610706565b60405180910390fd5b5f60015f8373ffffffffffffffffffffffffffffffffffffffff1673ffffffffffffffffffffffffffffffffffffffff1681526020019081526020015f205f6101000a81548160ff0219169083151502179055508073ffffffffffffffffffffffffffffffffffffffff167f404a5a6aec5266b19b23d6c12b580262d12a26418278655bc87ce175b58cb67960405160405180910390a250565b6001602052805f5260405f205f915054906101000a900460ff1681565b5f8054906101000a900473ffffffffffffffffffffffffffffffffffffffff1673ffffffffffffffffffffffffffffffffffffffff163373ffffffffffffffffffffffffffffffffffffffff16146103de576040517f08c379a00000000000000000000000000000000000000000000000000000000081526004016103d59061069e565b60405180910390fd5b5f73ffffffffffffffffffffffffffffffffffffffff168173ffffffffffffffffffffffffffffffffffffffff1614158015610461575060015f8273ffffffffffffffffffffffffffffffffffffffff1673ffffffffffffffffffffffffffffffffffffffff1681526020019081526020015f205f9054906101000a900460ff16155b6104a0576040517f08c379a00000000000000000000000000000000000000000000000000000000081526004016104979061076e565b60405180910390fd5b6001805f8373ffffffffffffffffffffffffffffffffffffffff1673ffffffffffffffffffffffffffffffffffffffff1681526020019081526020015f205f6101000a81548160ff0219169083151502179055508073ffffffffffffffffffffffffffffffffffffffff167f9ae14270d96a1e7eba0486d8c340a42fde018a5db0da570f36686e7dd4818f8d60405160405180910390a250565b5f80fd5b5f73ffffffffffffffffffffffffffffffffffffffff82169050919050565b5f6105678261053e565b9050919050565b6105778161055d565b8114610581575f80fd5b50565b5f813590506105928161056e565b92915050565b5f602082840312156105ad576105ac61053a565b5b5f6105ba84828501610584565b91505092915050565b5f8115159050919050565b6105d7816105c3565b82525050565b5f6020820190506105f05f8301846105ce565b92915050565b6105ff8161055d565b82525050565b5f6020820190506106185f8301846105f6565b92915050565b5f82825260208201905092915050565b7f4f6e6c7920746865206f776e65722063616e2063616c6c20746869732066756e5f8201527f6374696f6e000000000000000000000000000000000000000000000000000000602082015250565b5f61068860258361061e565b91506106938261062e565b604082019050919050565b5f6020820190508181035f8301526106b58161067c565b9050919050565b7f57616c6c6574206e6f7420666f756e6420696e20746865206c697374000000005f82015250565b5f6106f0601c8361061e565b91506106fb826106bc565b602082019050919050565b5f6020820190508181035f83015261071d816106e4565b9050919050565b7f496e76616c6964206f7220616c7265616479206c69737465642077616c6c65745f82015250565b5f61075860208361061e565b915061076382610724565b602082019050919050565b5f6020820190508181035f8301526107858161074c565b905091905056fea2646970667358221220141366b29f6468b5478eabc1061b59beafdf148700e42d3eda2cb0816f7ebf6e64736f6c63430008150033",
  "immutableReferences": {},
  "source": "// SPDX-License-Identifier: MIT\npragma solidity ^0.8.0;\n\ncontract WalletList {\n    address public owner;\n    mapping(address => bool) public walletList;\n\n    event WalletAdded(address indexed wallet);\n    event WalletRemoved(address indexed wallet);\n\n    modifier onlyOwner() {\n        require(msg.sender == owner, \"Only the owner can call this function\");\n        _;\n    }\n\n    constructor() {\n        owner = msg.sender;\n    }\n\n    // Function to add a new wallet address to the list\n    function addWallet(address newWallet) external onlyOwner {\n        require(newWallet != address(0) && !walletList[newWallet], \"Invalid or already listed wallet\");\n        walletList[newWallet] = true;\n        emit WalletAdded(newWallet);\n    }\n\n    // Function to remove a wallet address from the list\n    function removeWallet(address wallet) external onlyOwner {\n        require(walletList[wallet], \"Wallet not found in the list\");\n        walletList[wallet] = false;\n        emit WalletRemoved(wallet);\n    }\n\n    // Function to check if a wallet is listed\n    function isWalletListed(address wallet) external view returns (bool) {\n        return walletList[wallet];\n    }\n}\n",
  "sourcePath": "/home/ubuntu/project/CryptoWalletTracker/contracts/WalletList.sol",
  "compiler": {
    "name": "solc",
    "version": "0.8.21+commit.d9974bed.Emscripten.clang"
  },
  "schemaVersion": "3.4.16",
  "updatedAt": "2023-12-17T08:43:53.711Z",
  "devdoc": {
    "kind": "dev",
    "methods": {},
    "version": 1
  },
  "userdoc": {
    "kind": "user",
    "methods": {},
    "version": 1
  }
}